{
  "contractName": "Credentials",
  "abi": [
    {
      "inputs": [
        {
          "internalType": "string",
          "name": "_username",
          "type": "string"
        },
        {
          "internalType": "string",
          "name": "_password",
          "type": "string"
        }
      ],
      "name": "storeCredential",
      "outputs": [],
      "stateMutability": "nonpayable",
      "type": "function"
    },
    {
      "inputs": [
        {
          "internalType": "address",
          "name": "_user",
          "type": "address"
        }
      ],
      "name": "getCredential",
      "outputs": [
        {
          "internalType": "string",
          "name": "",
          "type": "string"
        },
        {
          "internalType": "string",
          "name": "",
          "type": "string"
        }
      ],
      "stateMutability": "view",
      "type": "function"
    }
  ],
  "bytecode": "0x608060405234801561001057600080fd5b506106a8806100206000396000f3fe608060405234801561001057600080fd5b50600436106100365760003560e01c8063720f01941461003b578063ccdad14b14610057575b600080fd5b610055600480360381019061005091906103ed565b610088565b005b610071600480360381019061006c91906103c4565b61011c565b60405161007f929190610492565b60405180910390f35b6040518060400160405280838152602001828152506000803373ffffffffffffffffffffffffffffffffffffffff1673ffffffffffffffffffffffffffffffffffffffff16815260200190815260200160002060008201518160000190805190602001906100f79291906102a4565b5060208201518160010190805190602001906101149291906102a4565b509050505050565b60608060008060008573ffffffffffffffffffffffffffffffffffffffff1673ffffffffffffffffffffffffffffffffffffffff16815260200190815260200160002060405180604001604052908160008201805461017a906105ba565b80601f01602080910402602001604051908101604052809291908181526020018280546101a6906105ba565b80156101f35780601f106101c8576101008083540402835291602001916101f3565b820191906000526020600020905b8154815290600101906020018083116101d657829003601f168201915b5050505050815260200160018201805461020c906105ba565b80601f0160208091040260200160405190810160405280929190818152602001828054610238906105ba565b80156102855780601f1061025a57610100808354040283529160200191610285565b820191906000526020600020905b81548152906001019060200180831161026857829003601f168201915b5050505050815250509050806000015181602001519250925050915091565b8280546102b0906105ba565b90600052602060002090601f0160209004810192826102d25760008555610319565b82601f106102eb57805160ff1916838001178555610319565b82800160010185558215610319579182015b828111156103185782518255916020019190600101906102fd565b5b509050610326919061032a565b5090565b5b8082111561034357600081600090555060010161032b565b5090565b600061035a610355846104fa565b6104c9565b90508281526020810184848401111561037257600080fd5b61037d848285610578565b509392505050565b6000813590506103948161065b565b92915050565b600082601f8301126103ab57600080fd5b81356103bb848260208601610347565b91505092915050565b6000602082840312156103d657600080fd5b60006103e484828501610385565b91505092915050565b6000806040838503121561040057600080fd5b600083013567ffffffffffffffff81111561041a57600080fd5b6104268582860161039a565b925050602083013567ffffffffffffffff81111561044357600080fd5b61044f8582860161039a565b9150509250929050565b60006104648261052a565b61046e8185610535565b935061047e818560208601610587565b6104878161064a565b840191505092915050565b600060408201905081810360008301526104ac8185610459565b905081810360208301526104c08184610459565b90509392505050565b6000604051905081810181811067ffffffffffffffff821117156104f0576104ef61061b565b5b8060405250919050565b600067ffffffffffffffff8211156105155761051461061b565b5b601f19601f8301169050602081019050919050565b600081519050919050565b600082825260208201905092915050565b600061055182610558565b9050919050565b600073ffffffffffffffffffffffffffffffffffffffff82169050919050565b82818337600083830152505050565b60005b838110156105a557808201518184015260208101905061058a565b838111156105b4576000848401525b50505050565b600060028204905060018216806105d257607f821691505b602082108114156105e6576105e56105ec565b5b50919050565b7f4e487b7100000000000000000000000000000000000000000000000000000000600052602260045260246000fd5b7f4e487b7100000000000000000000000000000000000000000000000000000000600052604160045260246000fd5b6000601f19601f8301169050919050565b61066481610546565b811461066f57600080fd5b5056fea2646970667358221220c8cf8bfcd29aa2c75ee23f72fe2aaa79002ca18ebeb641c36dbe490aac9dd9dc64736f6c63430008000033",
  "immutableReferences": {},
  "source": "// SPDX-License-Identifier: MIT\npragma solidity ^0.8.0;\n\ncontract Credentials {\n    struct Credential {\n        string username;\n        string password;\n    }\n\n    mapping(address => Credential) private credentials;\n\n    function storeCredential(string memory _username, string memory _password) public {\n        credentials[msg.sender] = Credential(_username, _password);\n    }\n\n    function getCredential(address _user) public view returns (string memory, string memory) {\n        Credential memory userCredential = credentials[_user];\n        return (userCredential.username, userCredential.password);\n    }\n}",
  "sourcePath": "/Users/ayushadhikari/ssi1/contracts/Credentials.sol",
  "compiler": {
    "name": "solc",
    "version": "0.8.0+commit.c7dfd78e.Emscripten.clang"
  },
  "schemaVersion": "3.4.16",
  "updatedAt": "2024-03-02T05:36:51.702Z",
  "devdoc": {
    "kind": "dev",
    "methods": {},
    "version": 1
  },
  "userdoc": {
    "kind": "user",
    "methods": {},
    "version": 1
  }
}