{
  "contractName": "SSI",
  "abi": [
    {
      "inputs": [],
      "name": "docCount",
      "outputs": [
        {
          "internalType": "uint256",
          "name": "",
          "type": "uint256"
        }
      ],
      "stateMutability": "view",
      "type": "function",
      "constant": true
    },
    {
      "inputs": [
        {
          "internalType": "uint256",
          "name": "",
          "type": "uint256"
        }
      ],
      "name": "documents",
      "outputs": [
        {
          "internalType": "uint256",
          "name": "id",
          "type": "uint256"
        },
        {
          "internalType": "string",
          "name": "user_did",
          "type": "string"
        },
        {
          "internalType": "string",
          "name": "did",
          "type": "string"
        },
        {
          "internalType": "string",
          "name": "name",
          "type": "string"
        },
        {
          "internalType": "string",
          "name": "fathersName",
          "type": "string"
        },
        {
          "internalType": "string",
          "name": "email",
          "type": "string"
        },
        {
          "internalType": "string",
          "name": "phone",
          "type": "string"
        },
        {
          "internalType": "string",
          "name": "permanentAddress",
          "type": "string"
        },
        {
          "internalType": "string",
          "name": "signature",
          "type": "string"
        },
        {
          "internalType": "bool",
          "name": "status",
          "type": "bool"
        }
      ],
      "stateMutability": "view",
      "type": "function",
      "constant": true
    },
    {
      "inputs": [
        {
          "internalType": "string",
          "name": "user_did",
          "type": "string"
        },
        {
          "internalType": "string",
          "name": "did",
          "type": "string"
        },
        {
          "internalType": "string",
          "name": "name",
          "type": "string"
        },
        {
          "internalType": "string",
          "name": "fathersName",
          "type": "string"
        },
        {
          "internalType": "string",
          "name": "email",
          "type": "string"
        },
        {
          "internalType": "string",
          "name": "phone",
          "type": "string"
        },
        {
          "internalType": "string",
          "name": "permanentAddress",
          "type": "string"
        }
      ],
      "name": "addDocument",
      "outputs": [],
      "stateMutability": "nonpayable",
      "type": "function"
    },
    {
      "inputs": [],
      "name": "getDocCount",
      "outputs": [
        {
          "internalType": "uint256",
          "name": "",
          "type": "uint256"
        }
      ],
      "stateMutability": "view",
      "type": "function",
      "constant": true
    },
    {
      "inputs": [
        {
          "internalType": "uint256",
          "name": "id",
          "type": "uint256"
        }
      ],
      "name": "getDocument",
      "outputs": [
        {
          "internalType": "string",
          "name": "user_did",
          "type": "string"
        },
        {
          "internalType": "string",
          "name": "did",
          "type": "string"
        },
        {
          "internalType": "string",
          "name": "name",
          "type": "string"
        },
        {
          "internalType": "string",
          "name": "fathersName",
          "type": "string"
        },
        {
          "internalType": "string",
          "name": "email",
          "type": "string"
        },
        {
          "internalType": "string",
          "name": "phone",
          "type": "string"
        },
        {
          "internalType": "string",
          "name": "permanentAddress",
          "type": "string"
        },
        {
          "internalType": "bool",
          "name": "status",
          "type": "bool"
        }
      ],
      "stateMutability": "view",
      "type": "function",
      "constant": true
    },
    {
      "inputs": [
        {
          "internalType": "uint256",
          "name": "id",
          "type": "uint256"
        },
        {
          "internalType": "string",
          "name": "user_did",
          "type": "string"
        },
        {
          "internalType": "string",
          "name": "did",
          "type": "string"
        },
        {
          "internalType": "string",
          "name": "name",
          "type": "string"
        },
        {
          "internalType": "string",
          "name": "fathersName",
          "type": "string"
        },
        {
          "internalType": "string",
          "name": "email",
          "type": "string"
        },
        {
          "internalType": "string",
          "name": "phone",
          "type": "string"
        },
        {
          "internalType": "string",
          "name": "permanentAddress",
          "type": "string"
        },
        {
          "internalType": "bytes",
          "name": "signature",
          "type": "bytes"
        }
      ],
      "name": "verifyDocument",
      "outputs": [],
      "stateMutability": "nonpayable",
      "type": "function"
    },
    {
      "inputs": [],
      "name": "totalDocuments",
      "outputs": [
        {
          "internalType": "uint256",
          "name": "",
          "type": "uint256"
        }
      ],
      "stateMutability": "view",
      "type": "function",
      "constant": true
    },
    {
      "inputs": [
        {
          "internalType": "string",
          "name": "user_did",
          "type": "string"
        }
      ],
      "name": "showAllDocs",
      "outputs": [
        {
          "internalType": "uint256[]",
          "name": "",
          "type": "uint256[]"
        }
      ],
      "stateMutability": "view",
      "type": "function",
      "constant": true
    }
  ],
  "bytecode": "0x60806040526000805534801561001457600080fd5b50612095806100246000396000f3fe608060405234801561001057600080fd5b50600436106100885760003560e01c806363704e931161005b57806363704e931461011c578063c14748881461013a578063c2ed2b051461016a578063f681d6dd146101a357610088565b80633f9b250a1461008d5780634c4dc6e0146100c4578063553181ec146100e257806359a2a63014610100575b600080fd5b6100a760048036038101906100a29190611612565b6101bf565b6040516100bb989796959493929190611b65565b60405180910390f35b6100cc6106e8565b6040516100d99190611c94565b60405180910390f35b6100ea6106ee565b6040516100f79190611c94565b60405180910390f35b61011a600480360381019061011591906114cc565b6106f7565b005b61012461089c565b6040516101319190611c94565b60405180910390f35b610154600480360381019061014f919061148b565b6108a5565b6040516101619190611afe565b60405180910390f35b610184600480360381019061017f9190611612565b610b1e565b60405161019a9a99989796959493929190611caf565b60405180910390f35b6101bd60048036038101906101b8919061163b565b610fbf565b005b6060806060806060806060600080600160008b8152602001908152602001600020604051806101400160405290816000820154815260200160018201805461020690611f2f565b80601f016020809104026020016040519081016040528092919081815260200182805461023290611f2f565b801561027f5780601f106102545761010080835404028352916020019161027f565b820191906000526020600020905b81548152906001019060200180831161026257829003601f168201915b5050505050815260200160028201805461029890611f2f565b80601f01602080910402602001604051908101604052809291908181526020018280546102c490611f2f565b80156103115780601f106102e657610100808354040283529160200191610311565b820191906000526020600020905b8154815290600101906020018083116102f457829003601f168201915b5050505050815260200160038201805461032a90611f2f565b80601f016020809104026020016040519081016040528092919081815260200182805461035690611f2f565b80156103a35780601f10610378576101008083540402835291602001916103a3565b820191906000526020600020905b81548152906001019060200180831161038657829003601f168201915b505050505081526020016004820180546103bc90611f2f565b80601f01602080910402602001604051908101604052809291908181526020018280546103e890611f2f565b80156104355780601f1061040a57610100808354040283529160200191610435565b820191906000526020600020905b81548152906001019060200180831161041857829003601f168201915b5050505050815260200160058201805461044e90611f2f565b80601f016020809104026020016040519081016040528092919081815260200182805461047a90611f2f565b80156104c75780601f1061049c576101008083540402835291602001916104c7565b820191906000526020600020905b8154815290600101906020018083116104aa57829003601f168201915b505050505081526020016006820180546104e090611f2f565b80601f016020809104026020016040519081016040528092919081815260200182805461050c90611f2f565b80156105595780601f1061052e57610100808354040283529160200191610559565b820191906000526020600020905b81548152906001019060200180831161053c57829003601f168201915b5050505050815260200160078201805461057290611f2f565b80601f016020809104026020016040519081016040528092919081815260200182805461059e90611f2f565b80156105eb5780601f106105c0576101008083540402835291602001916105eb565b820191906000526020600020905b8154815290600101906020018083116105ce57829003601f168201915b5050505050815260200160088201805461060490611f2f565b80601f016020809104026020016040519081016040528092919081815260200182805461063090611f2f565b801561067d5780601f106106525761010080835404028352916020019161067d565b820191906000526020600020905b81548152906001019060200180831161066057829003601f168201915b505050505081526020016009820160009054906101000a900460ff161515151581525050905080602001518160400151826060015183608001518460a001518560c001518660e001518761012001519850985098509850985098509850985050919395975091939597565b60005481565b60008054905090565b604051806101400160405280600054815260200188815260200187815260200186815260200185815260200184815260200183815260200182815260200160405180602001604052806000815250815260200160001515815250600160008054815260200190815260200160002060008201518160000155602082015181600101908051906020019061078b929190611303565b5060408201518160020190805190602001906107a8929190611303565b5060608201518160030190805190602001906107c5929190611303565b5060808201518160040190805190602001906107e2929190611303565b5060a08201518160050190805190602001906107ff929190611303565b5060c082015181600601908051906020019061081c929190611303565b5060e0820151816007019080519060200190610839929190611303565b50610100820151816008019080519060200190610857929190611303565b506101208201518160090160006101000a81548160ff02191690831515021790555090505060008081548092919061088e90611f61565b919050555050505050505050565b60008054905090565b60606000805467ffffffffffffffff8111156108ea577f4e487b7100000000000000000000000000000000000000000000000000000000600052604160045260246000fd5b6040519080825280602002602001820160405280156109185781602001602082028036833780820191505090505b5090506000805b6000548110156109fa578460405160200161093a9190611a6b565b60405160208183030381529060405280519060200120600160008381526020019081526020016000206001016040516020016109769190611ae7565b6040516020818303038152906040528051906020012014156109e757808383815181106109cc577f4e487b7100000000000000000000000000000000000000000000000000000000600052603260045260246000fd5b60200260200101818152505081806109e390611f61565b9250505b80806109f290611f61565b91505061091f565b5060008167ffffffffffffffff811115610a3d577f4e487b7100000000000000000000000000000000000000000000000000000000600052604160045260246000fd5b604051908082528060200260200182016040528015610a6b5781602001602082028036833780820191505090505b50905060005b82811015610b1257838181518110610ab2577f4e487b7100000000000000000000000000000000000000000000000000000000600052603260045260246000fd5b6020026020010151828281518110610af3577f4e487b7100000000000000000000000000000000000000000000000000000000600052603260045260246000fd5b6020026020010181815250508080610b0a90611f61565b915050610a71565b50809350505050919050565b6001602052806000526040600020600091509050806000015490806001018054610b4790611f2f565b80601f0160208091040260200160405190810160405280929190818152602001828054610b7390611f2f565b8015610bc05780601f10610b9557610100808354040283529160200191610bc0565b820191906000526020600020905b815481529060010190602001808311610ba357829003601f168201915b505050505090806002018054610bd590611f2f565b80601f0160208091040260200160405190810160405280929190818152602001828054610c0190611f2f565b8015610c4e5780601f10610c2357610100808354040283529160200191610c4e565b820191906000526020600020905b815481529060010190602001808311610c3157829003601f168201915b505050505090806003018054610c6390611f2f565b80601f0160208091040260200160405190810160405280929190818152602001828054610c8f90611f2f565b8015610cdc5780601f10610cb157610100808354040283529160200191610cdc565b820191906000526020600020905b815481529060010190602001808311610cbf57829003601f168201915b505050505090806004018054610cf190611f2f565b80601f0160208091040260200160405190810160405280929190818152602001828054610d1d90611f2f565b8015610d6a5780601f10610d3f57610100808354040283529160200191610d6a565b820191906000526020600020905b815481529060010190602001808311610d4d57829003601f168201915b505050505090806005018054610d7f90611f2f565b80601f0160208091040260200160405190810160405280929190818152602001828054610dab90611f2f565b8015610df85780601f10610dcd57610100808354040283529160200191610df8565b820191906000526020600020905b815481529060010190602001808311610ddb57829003601f168201915b505050505090806006018054610e0d90611f2f565b80601f0160208091040260200160405190810160405280929190818152602001828054610e3990611f2f565b8015610e865780601f10610e5b57610100808354040283529160200191610e86565b820191906000526020600020905b815481529060010190602001808311610e6957829003601f168201915b505050505090806007018054610e9b90611f2f565b80601f0160208091040260200160405190810160405280929190818152602001828054610ec790611f2f565b8015610f145780601f10610ee957610100808354040283529160200191610f14565b820191906000526020600020905b815481529060010190602001808311610ef757829003601f168201915b505050505090806008018054610f2990611f2f565b80601f0160208091040260200160405190810160405280929190818152602001828054610f5590611f2f565b8015610fa25780601f10610f7757610100808354040283529160200191610fa2565b820191906000526020600020905b815481529060010190602001808311610f8557829003601f168201915b5050505050908060090160009054906101000a900460ff1690508a565b6000548910611003576040517f08c379a0000000000000000000000000000000000000000000000000000000008152600401610ffa90611c14565b60405180910390fd5b6000600160008b815260200190815260200160002090506000898989898989896040516020016110399796959493929190611a82565b604051602081830303815290604052805190602001209050600061105d82856111c8565b90506110688b6112f5565b73ffffffffffffffffffffffffffffffffffffffff168173ffffffffffffffffffffffffffffffffffffffff16146110d5576040517f08c379a00000000000000000000000000000000000000000000000000000000081526004016110cc90611c54565b60405180910390fd5b8a8360010190805190602001906110ed929190611303565b5089836002019080519060200190611106929190611303565b508883600301908051906020019061111f929190611303565b5087836004019080519060200190611138929190611303565b5086836005019080519060200190611151929190611303565b508583600601908051906020019061116a929190611303565b5084836007019080519060200190611183929190611303565b508383600801908051906020019061119c929190611303565b5060018360090160006101000a81548160ff021916908315150217905550505050505050505050505050565b6000604182511461120e576040517f08c379a000000000000000000000000000000000000000000000000000000000815260040161120590611c74565b60405180910390fd5b60008060006020850151925060408501519150606085015160001a9050601b8160ff16101561124757601b816112449190611e89565b90505b601b8160ff16148061125c5750601c8160ff16145b61129b576040517f08c379a000000000000000000000000000000000000000000000000000000000815260040161129290611c34565b60405180910390fd5b600186828585604051600081526020016040526040516112be9493929190611b20565b6020604051602081039080840390855afa1580156112e0573d6000803e3d6000fd5b50505060206040510351935050505092915050565b600060148201519050919050565b82805461130f90611f2f565b90600052602060002090601f0160209004810192826113315760008555611378565b82601f1061134a57805160ff1916838001178555611378565b82800160010185558215611378579182015b8281111561137757825182559160200191906001019061135c565b5b5090506113859190611389565b5090565b5b808211156113a257600081600090555060010161138a565b5090565b60006113b96113b484611db4565b611d83565b9050828152602081018484840111156113d157600080fd5b6113dc848285611eed565b509392505050565b60006113f76113f284611de4565b611d83565b90508281526020810184848401111561140f57600080fd5b61141a848285611eed565b509392505050565b600082601f83011261143357600080fd5b81356114438482602086016113a6565b91505092915050565b600082601f83011261145d57600080fd5b813561146d8482602086016113e4565b91505092915050565b60008135905061148581612048565b92915050565b60006020828403121561149d57600080fd5b600082013567ffffffffffffffff8111156114b757600080fd5b6114c38482850161144c565b91505092915050565b600080600080600080600060e0888a0312156114e757600080fd5b600088013567ffffffffffffffff81111561150157600080fd5b61150d8a828b0161144c565b975050602088013567ffffffffffffffff81111561152a57600080fd5b6115368a828b0161144c565b965050604088013567ffffffffffffffff81111561155357600080fd5b61155f8a828b0161144c565b955050606088013567ffffffffffffffff81111561157c57600080fd5b6115888a828b0161144c565b945050608088013567ffffffffffffffff8111156115a557600080fd5b6115b18a828b0161144c565b93505060a088013567ffffffffffffffff8111156115ce57600080fd5b6115da8a828b0161144c565b92505060c088013567ffffffffffffffff8111156115f757600080fd5b6116038a828b0161144c565b91505092959891949750929550565b60006020828403121561162457600080fd5b600061163284828501611476565b91505092915050565b60008060008060008060008060006101208a8c03121561165a57600080fd5b60006116688c828d01611476565b99505060208a013567ffffffffffffffff81111561168557600080fd5b6116918c828d0161144c565b98505060408a013567ffffffffffffffff8111156116ae57600080fd5b6116ba8c828d0161144c565b97505060608a013567ffffffffffffffff8111156116d757600080fd5b6116e38c828d0161144c565b96505060808a013567ffffffffffffffff81111561170057600080fd5b61170c8c828d0161144c565b95505060a08a013567ffffffffffffffff81111561172957600080fd5b6117358c828d0161144c565b94505060c08a013567ffffffffffffffff81111561175257600080fd5b61175e8c828d0161144c565b93505060e08a013567ffffffffffffffff81111561177b57600080fd5b6117878c828d0161144c565b9250506101008a013567ffffffffffffffff8111156117a557600080fd5b6117b18c828d01611422565b9150509295985092959850929598565b60006117cd8383611a3e565b60208301905092915050565b60006117e482611e39565b6117ee8185611e5c565b93506117f983611e14565b8060005b8381101561182a57815161181188826117c1565b975061181c83611e4f565b9250506001810190506117fd565b5085935050505092915050565b61184081611ec0565b82525050565b61184f81611ecc565b82525050565b600061186082611e44565b61186a8185611e6d565b935061187a818560208601611efc565b61188381612037565b840191505092915050565b600061189982611e44565b6118a38185611e7e565b93506118b3818560208601611efc565b80840191505092915050565b600081546118cc81611f2f565b6118d68186611e7e565b945060018216600081146118f1576001811461190257611935565b60ff19831686528186019350611935565b61190b85611e24565b60005b8381101561192d5781548189015260018201915060208101905061190e565b838801955050505b50505092915050565b600061194b601383611e6d565b91507f496e76616c696420646f63756d656e74204944000000000000000000000000006000830152602082019050919050565b600061198b601d83611e6d565b91507f496e76616c6964207369676e6174757265207265636f766572792069640000006000830152602082019050919050565b60006119cb601d83611e6d565b91507f5369676e617475726520766572696669636174696f6e206661696c65640000006000830152602082019050919050565b6000611a0b601883611e6d565b91507f496e76616c6964207369676e6174757265206c656e67746800000000000000006000830152602082019050919050565b611a4781611ed6565b82525050565b611a5681611ed6565b82525050565b611a6581611ee0565b82525050565b6000611a77828461188e565b915081905092915050565b6000611a8e828a61188e565b9150611a9a828961188e565b9150611aa6828861188e565b9150611ab2828761188e565b9150611abe828661188e565b9150611aca828561188e565b9150611ad6828461188e565b915081905098975050505050505050565b6000611af382846118bf565b915081905092915050565b60006020820190508181036000830152611b1881846117d9565b905092915050565b6000608082019050611b356000830187611846565b611b426020830186611a5c565b611b4f6040830185611846565b611b5c6060830184611846565b95945050505050565b6000610100820190508181036000830152611b80818b611855565b90508181036020830152611b94818a611855565b90508181036040830152611ba88189611855565b90508181036060830152611bbc8188611855565b90508181036080830152611bd08187611855565b905081810360a0830152611be48186611855565b905081810360c0830152611bf88185611855565b9050611c0760e0830184611837565b9998505050505050505050565b60006020820190508181036000830152611c2d8161193e565b9050919050565b60006020820190508181036000830152611c4d8161197e565b9050919050565b60006020820190508181036000830152611c6d816119be565b9050919050565b60006020820190508181036000830152611c8d816119fe565b9050919050565b6000602082019050611ca96000830184611a4d565b92915050565b600061014082019050611cc5600083018d611a4d565b8181036020830152611cd7818c611855565b90508181036040830152611ceb818b611855565b90508181036060830152611cff818a611855565b90508181036080830152611d138189611855565b905081810360a0830152611d278188611855565b905081810360c0830152611d3b8187611855565b905081810360e0830152611d4f8186611855565b9050818103610100830152611d648185611855565b9050611d74610120830184611837565b9b9a5050505050505050505050565b6000604051905081810181811067ffffffffffffffff82111715611daa57611da9612008565b5b8060405250919050565b600067ffffffffffffffff821115611dcf57611dce612008565b5b601f19601f8301169050602081019050919050565b600067ffffffffffffffff821115611dff57611dfe612008565b5b601f19601f8301169050602081019050919050565b6000819050602082019050919050565b60008190508160005260206000209050919050565b600081519050919050565b600081519050919050565b6000602082019050919050565b600082825260208201905092915050565b600082825260208201905092915050565b600081905092915050565b6000611e9482611ee0565b9150611e9f83611ee0565b92508260ff03821115611eb557611eb4611faa565b5b828201905092915050565b60008115159050919050565b6000819050919050565b6000819050919050565b600060ff82169050919050565b82818337600083830152505050565b60005b83811015611f1a578082015181840152602081019050611eff565b83811115611f29576000848401525b50505050565b60006002820490506001821680611f4757607f821691505b60208210811415611f5b57611f5a611fd9565b5b50919050565b6000611f6c82611ed6565b91507fffffffffffffffffffffffffffffffffffffffffffffffffffffffffffffffff821415611f9f57611f9e611faa565b5b600182019050919050565b7f4e487b7100000000000000000000000000000000000000000000000000000000600052601160045260246000fd5b7f4e487b7100000000000000000000000000000000000000000000000000000000600052602260045260246000fd5b7f4e487b7100000000000000000000000000000000000000000000000000000000600052604160045260246000fd5b6000601f19601f8301169050919050565b61205181611ed6565b811461205c57600080fd5b5056fea264697066735822122068c969c8046f4573537fc828df292ffc2b971756a2be6b1662493413650085d564736f6c63430008000033",
  "immutableReferences": {},
  "source": "// SPDX-License-Identifier: MIT\npragma solidity ^0.8.0;\n\ncontract SSI {\n    uint256 public docCount = 0;\n\n    struct Document {\n        uint256 id;\n        string user_did;\n        string did;\n        string name;\n        string fathersName;\n        string email;\n        string phone;\n        string permanentAddress;\n        string signature;\n        bool status;\n    }\n\n    mapping(uint256 => Document) public documents;\n\n    function addDocument(\n        string memory user_did,\n        string memory did,\n        string memory name,\n        string memory fathersName,\n        string memory email,\n        string memory phone,\n        string memory permanentAddress\n    ) public {\n        documents[docCount] = Document(\n            docCount,\n            user_did,\n            did,\n            name,\n            fathersName,\n            email,\n            phone,\n            permanentAddress,\n            \"\",\n            false\n        );\n        docCount++;\n    }\n\n    function getDocCount() public view returns (uint256) {\n        return docCount;\n    }\n\n    function getDocument(uint256 id)\n        public\n        view\n        returns (\n            string memory user_did,\n            string memory did,\n            string memory name,\n            string memory fathersName,\n            string memory email,\n            string memory phone,\n            string memory permanentAddress,\n            bool status\n        )\n    {\n        Document memory doc = documents[id];\n        return (\n            doc.user_did,\n            doc.did,\n            doc.name,\n            doc.fathersName,\n            doc.email,\n            doc.phone,\n            doc.permanentAddress,\n            doc.status\n        );\n    }\n\n    function verifyDocument(\n        uint256 id,\n        string memory user_did,\n        string memory did,\n        string memory name,\n        string memory fathersName,\n        string memory email,\n        string memory phone,\n        string memory permanentAddress,\n        bytes memory signature\n    ) public {\n        require(id < docCount, \"Invalid document ID\");\n        Document storage doc = documents[id];\n\n        bytes32 messageHash = keccak256(\n            abi.encodePacked(\n                user_did,\n                did,\n                name,\n                fathersName,\n                email,\n                phone,\n                permanentAddress\n            )\n        );\n\n        address recoveredAddress = recoverSigner(messageHash, signature);\n\n        require(\n            recoveredAddress == bytesToAddress(bytes(user_did)),\n            \"Signature verification failed\"\n        );\n\n        doc.user_did = user_did;\n        doc.did = did;\n        doc.name = name;\n        doc.fathersName = fathersName;\n        doc.email = email;\n        doc.phone = phone;\n        doc.permanentAddress = permanentAddress;\n        doc.signature = string(signature);\n        doc.status = true;\n    }\n\n    function totalDocuments() public view returns (uint256) {\n        return docCount;\n    }\n\n    function showAllDocs(string memory user_did)\n        public\n        view\n        returns (uint256[] memory)\n    {\n        uint256[] memory indices = new uint256[](docCount);\n        uint256 count = 0;\n        for (uint256 i = 0; i < docCount; i++) {\n            if (\n                keccak256(abi.encodePacked((documents[i].user_did))) ==\n                keccak256(abi.encodePacked((user_did)))\n            ) {\n                indices[count] = i;\n                count++;\n            }\n        }\n        uint256[] memory result = new uint256[](count);\n        for (uint256 i = 0; i < count; i++) {\n            result[i] = indices[i];\n        }\n        return result;\n    }\n\n    function recoverSigner(bytes32 messageHash, bytes memory signature)\n        internal\n        pure\n        returns (address)\n    {\n        require(signature.length == 65, \"Invalid signature length\");\n\n        bytes32 r;\n        bytes32 s;\n        uint8 v;\n\n        assembly {\n            r := mload(add(signature, 32))\n            s := mload(add(signature, 64))\n            v := byte(0, mload(add(signature, 96)))\n        }\n\n        if (v < 27) {\n            v += 27;\n        }\n\n        require(v == 27 || v == 28, \"Invalid signature recovery id\");\n\n        return ecrecover(messageHash, v, r, s);\n    }\n\n    function bytesToAddress(bytes memory data)\n        internal\n        pure\n        returns (address addr)\n    {\n        assembly {\n            addr := mload(add(data, 20))\n        }\n    }\n}",
  "sourcePath": "/Users/ayushadhikari/ssi1/contracts/SSI.sol",
  "compiler": {
    "name": "solc",
    "version": "0.8.0+commit.c7dfd78e.Emscripten.clang"
  },
  "schemaVersion": "3.4.16",
  "updatedAt": "2024-03-01T07:42:45.843Z",
  "networkType": "ethereum",
  "devdoc": {
    "kind": "dev",
    "methods": {},
    "version": 1
  },
  "userdoc": {
    "kind": "user",
    "methods": {},
    "version": 1
  }
}