{
  "contractName": "VerifierSSI",
  "abi": [
    {
      "inputs": [],
      "name": "reqCount",
      "outputs": [
        {
          "internalType": "uint256",
          "name": "",
          "type": "uint256"
        }
      ],
      "stateMutability": "view",
      "type": "function",
      "constant": true
    },
    {
      "inputs": [
        {
          "internalType": "uint256",
          "name": "",
          "type": "uint256"
        }
      ],
      "name": "requests",
      "outputs": [
        {
          "internalType": "uint256",
          "name": "id",
          "type": "uint256"
        },
        {
          "internalType": "string",
          "name": "user_did",
          "type": "string"
        },
        {
          "internalType": "string",
          "name": "V_publicKey",
          "type": "string"
        },
        {
          "internalType": "string",
          "name": "comp_and_doc",
          "type": "string"
        },
        {
          "internalType": "string",
          "name": "encAddress",
          "type": "string"
        },
        {
          "internalType": "string",
          "name": "request_at",
          "type": "string"
        },
        {
          "internalType": "bool",
          "name": "removed",
          "type": "bool"
        },
        {
          "internalType": "bool",
          "name": "review",
          "type": "bool"
        },
        {
          "internalType": "bool",
          "name": "status",
          "type": "bool"
        }
      ],
      "stateMutability": "view",
      "type": "function",
      "constant": true
    },
    {
      "inputs": [
        {
          "internalType": "string",
          "name": "user_did",
          "type": "string"
        },
        {
          "internalType": "string",
          "name": "V_publicKey",
          "type": "string"
        },
        {
          "internalType": "string",
          "name": "comp_and_doc",
          "type": "string"
        },
        {
          "internalType": "string",
          "name": "request_at",
          "type": "string"
        }
      ],
      "name": "makeRequest",
      "outputs": [],
      "stateMutability": "nonpayable",
      "type": "function"
    },
    {
      "inputs": [
        {
          "internalType": "uint256",
          "name": "id",
          "type": "uint256"
        },
        {
          "internalType": "string",
          "name": "encAddress",
          "type": "string"
        }
      ],
      "name": "acceptedByUser",
      "outputs": [],
      "stateMutability": "nonpayable",
      "type": "function"
    },
    {
      "inputs": [
        {
          "internalType": "string",
          "name": "user_did",
          "type": "string"
        }
      ],
      "name": "showRequest",
      "outputs": [
        {
          "internalType": "uint256[]",
          "name": "",
          "type": "uint256[]"
        }
      ],
      "stateMutability": "view",
      "type": "function",
      "constant": true
    },
    {
      "inputs": [],
      "name": "showAllRequest",
      "outputs": [
        {
          "internalType": "uint256",
          "name": "",
          "type": "uint256"
        }
      ],
      "stateMutability": "view",
      "type": "function",
      "constant": true
    },
    {
      "inputs": [
        {
          "internalType": "uint256",
          "name": "id",
          "type": "uint256"
        }
      ],
      "name": "getIndividualRequest",
      "outputs": [
        {
          "internalType": "uint256",
          "name": "",
          "type": "uint256"
        },
        {
          "internalType": "string",
          "name": "",
          "type": "string"
        },
        {
          "internalType": "string",
          "name": "",
          "type": "string"
        },
        {
          "internalType": "string",
          "name": "",
          "type": "string"
        },
        {
          "internalType": "string",
          "name": "",
          "type": "string"
        },
        {
          "internalType": "string",
          "name": "",
          "type": "string"
        },
        {
          "internalType": "bool",
          "name": "",
          "type": "bool"
        },
        {
          "internalType": "bool",
          "name": "",
          "type": "bool"
        },
        {
          "internalType": "bool",
          "name": "",
          "type": "bool"
        }
      ],
      "stateMutability": "view",
      "type": "function",
      "constant": true
    },
    {
      "inputs": [
        {
          "internalType": "uint256",
          "name": "id",
          "type": "uint256"
        },
        {
          "internalType": "bool",
          "name": "review",
          "type": "bool"
        },
        {
          "internalType": "bool",
          "name": "status",
          "type": "bool"
        }
      ],
      "name": "verifyDocument",
      "outputs": [],
      "stateMutability": "nonpayable",
      "type": "function"
    },
    {
      "inputs": [
        {
          "internalType": "uint256",
          "name": "id",
          "type": "uint256"
        }
      ],
      "name": "removeRequest",
      "outputs": [],
      "stateMutability": "nonpayable",
      "type": "function"
    }
  ],
  "bytecode": "0x60806040526000805534801561001457600080fd5b50611918806100246000396000f3fe608060405234801561001057600080fd5b50600436106100935760003560e01c806366cbeaf11161006657806366cbeaf11461012657806381d12c58146101565780638ba819881461018e578063eee3d364146101aa578063f4f71a0f146101c657610093565b80631a638c68146100985780632354c23c146100d057806344786fc3146100ec57806365b6862414610108575b600080fd5b6100b260048036038101906100ad9190611258565b6101e4565b6040516100c799989796959493929190611533565b60405180910390f35b6100ea60048036038101906100e59190611281565b610629565b005b61010660048036038101906101019190611258565b61070f565b005b6101106107d8565b60405161011d9190611518565b60405180910390f35b610140600480360381019061013b9190611154565b6107de565b60405161014d91906114d6565b60405180910390f35b610170600480360381019061016b9190611258565b610a66565b60405161018599989796959493929190611533565b60405180910390f35b6101a860048036038101906101a39190611195565b610d93565b005b6101c460048036038101906101bf91906112d0565b610f33565b005b6101ce611016565b6040516101db9190611518565b60405180910390f35b600060608060608060606000806000808a11801561020457506000548a11155b610243576040517f08c379a000000000000000000000000000000000000000000000000000000000815260040161023a906114f8565b60405180910390fd5b60006001808c610253919061170f565b8154811061028a577f4e487b7100000000000000000000000000000000000000000000000000000000600052603260045260246000fd5b906000526020600020906007020160405180610120016040529081600082015481526020016001820180546102be9061179b565b80601f01602080910402602001604051908101604052809291908181526020018280546102ea9061179b565b80156103375780601f1061030c57610100808354040283529160200191610337565b820191906000526020600020905b81548152906001019060200180831161031a57829003601f168201915b505050505081526020016002820180546103509061179b565b80601f016020809104026020016040519081016040528092919081815260200182805461037c9061179b565b80156103c95780601f1061039e576101008083540402835291602001916103c9565b820191906000526020600020905b8154815290600101906020018083116103ac57829003601f168201915b505050505081526020016003820180546103e29061179b565b80601f016020809104026020016040519081016040528092919081815260200182805461040e9061179b565b801561045b5780601f106104305761010080835404028352916020019161045b565b820191906000526020600020905b81548152906001019060200180831161043e57829003601f168201915b505050505081526020016004820180546104749061179b565b80601f01602080910402602001604051908101604052809291908181526020018280546104a09061179b565b80156104ed5780601f106104c2576101008083540402835291602001916104ed565b820191906000526020600020905b8154815290600101906020018083116104d057829003601f168201915b505050505081526020016005820180546105069061179b565b80601f01602080910402602001604051908101604052809291908181526020018280546105329061179b565b801561057f5780601f106105545761010080835404028352916020019161057f565b820191906000526020600020905b81548152906001019060200180831161056257829003601f168201915b505050505081526020016006820160009054906101000a900460ff161515151581526020016006820160019054906101000a900460ff161515151581526020016006820160029054906101000a900460ff1615151515815250509050806000015181602001518260400151836060015184608001518560a001518660c001518760e00151886101000151995099509950995099509950995099509950509193959799909294969850565b60008311801561063b57506000548311155b61067a576040517f08c379a0000000000000000000000000000000000000000000000000000000008152600401610671906114f8565b60405180910390fd5b60006001808561068a919061170f565b815481106106c1577f4e487b7100000000000000000000000000000000000000000000000000000000600052603260045260246000fd5b90600052602060002090600702019050828160060160016101000a81548160ff021916908315150217905550818160060160026101000a81548160ff02191690831515021790555050505050565b60008111801561072157506000548111155b610760576040517f08c379a0000000000000000000000000000000000000000000000000000000008152600401610757906114f8565b60405180910390fd5b600060018083610770919061170f565b815481106107a7577f4e487b7100000000000000000000000000000000000000000000000000000000600052603260045260246000fd5b9060005260206000209060070201905060018160060160006101000a81548160ff0219169083151502179055505050565b60005481565b60606000805467ffffffffffffffff811115610823577f4e487b7100000000000000000000000000000000000000000000000000000000600052604160045260246000fd5b6040519080825280602002602001820160405280156108515781602001602082028036833780820191505090505b5090506000805b600054811015610942578480519060200120600182815481106108a4577f4e487b7100000000000000000000000000000000000000000000000000000000600052603260045260246000fd5b90600052602060002090600702016001016040516108c291906114bf565b6040518091039020141561092f576001816108dd91906116b9565b8383806108e9906117cd565b945081518110610922577f4e487b7100000000000000000000000000000000000000000000000000000000600052603260045260246000fd5b6020026020010181815250505b808061093a906117cd565b915050610858565b5060008167ffffffffffffffff811115610985577f4e487b7100000000000000000000000000000000000000000000000000000000600052604160045260246000fd5b6040519080825280602002602001820160405280156109b35781602001602082028036833780820191505090505b50905060005b82811015610a5a578381815181106109fa577f4e487b7100000000000000000000000000000000000000000000000000000000600052603260045260246000fd5b6020026020010151828281518110610a3b577f4e487b7100000000000000000000000000000000000000000000000000000000600052603260045260246000fd5b6020026020010181815250508080610a52906117cd565b9150506109b9565b50809350505050919050565b60018181548110610a7657600080fd5b9060005260206000209060070201600091509050806000015490806001018054610a9f9061179b565b80601f0160208091040260200160405190810160405280929190818152602001828054610acb9061179b565b8015610b185780601f10610aed57610100808354040283529160200191610b18565b820191906000526020600020905b815481529060010190602001808311610afb57829003601f168201915b505050505090806002018054610b2d9061179b565b80601f0160208091040260200160405190810160405280929190818152602001828054610b599061179b565b8015610ba65780601f10610b7b57610100808354040283529160200191610ba6565b820191906000526020600020905b815481529060010190602001808311610b8957829003601f168201915b505050505090806003018054610bbb9061179b565b80601f0160208091040260200160405190810160405280929190818152602001828054610be79061179b565b8015610c345780601f10610c0957610100808354040283529160200191610c34565b820191906000526020600020905b815481529060010190602001808311610c1757829003601f168201915b505050505090806004018054610c499061179b565b80601f0160208091040260200160405190810160405280929190818152602001828054610c759061179b565b8015610cc25780601f10610c9757610100808354040283529160200191610cc2565b820191906000526020600020905b815481529060010190602001808311610ca557829003601f168201915b505050505090806005018054610cd79061179b565b80601f0160208091040260200160405190810160405280929190818152602001828054610d039061179b565b8015610d505780601f10610d2557610100808354040283529160200191610d50565b820191906000526020600020905b815481529060010190602001808311610d3357829003601f168201915b5050505050908060060160009054906101000a900460ff16908060060160019054906101000a900460ff16908060060160029054906101000a900460ff16905089565b600080815480929190610da5906117cd565b919050555060016040518061012001604052806000548152602001868152602001858152602001848152602001604051806020016040528060008152508152602001838152602001600015158152602001600015158152602001600015158152509080600181540180825580915050600190039060005260206000209060070201600090919091909150600082015181600001556020820151816001019080519060200190610e5592919061101f565b506040820151816002019080519060200190610e7292919061101f565b506060820151816003019080519060200190610e8f92919061101f565b506080820151816004019080519060200190610eac92919061101f565b5060a0820151816005019080519060200190610ec992919061101f565b5060c08201518160060160006101000a81548160ff02191690831515021790555060e08201518160060160016101000a81548160ff0219169083151502179055506101008201518160060160026101000a81548160ff021916908315150217905550505050505050565b600082118015610f4557506000548211155b610f84576040517f08c379a0000000000000000000000000000000000000000000000000000000008152600401610f7b906114f8565b60405180910390fd5b600060018084610f94919061170f565b81548110610fcb577f4e487b7100000000000000000000000000000000000000000000000000000000600052603260045260246000fd5b9060005260206000209060070201905081816004019080519060200190610ff392919061101f565b5060018160060160026101000a81548160ff021916908315150217905550505050565b60008054905090565b82805461102b9061179b565b90600052602060002090601f01602090048101928261104d5760008555611094565b82601f1061106657805160ff1916838001178555611094565b82800160010185558215611094579182015b82811115611093578251825591602001919060010190611078565b5b5090506110a191906110a5565b5090565b5b808211156110be5760008160009055506001016110a6565b5090565b60006110d56110d084611614565b6115e3565b9050828152602081018484840111156110ed57600080fd5b6110f8848285611759565b509392505050565b60008135905061110f816118b4565b92915050565b600082601f83011261112657600080fd5b81356111368482602086016110c2565b91505092915050565b60008135905061114e816118cb565b92915050565b60006020828403121561116657600080fd5b600082013567ffffffffffffffff81111561118057600080fd5b61118c84828501611115565b91505092915050565b600080600080608085870312156111ab57600080fd5b600085013567ffffffffffffffff8111156111c557600080fd5b6111d187828801611115565b945050602085013567ffffffffffffffff8111156111ee57600080fd5b6111fa87828801611115565b935050604085013567ffffffffffffffff81111561121757600080fd5b61122387828801611115565b925050606085013567ffffffffffffffff81111561124057600080fd5b61124c87828801611115565b91505092959194509250565b60006020828403121561126a57600080fd5b60006112788482850161113f565b91505092915050565b60008060006060848603121561129657600080fd5b60006112a48682870161113f565b93505060206112b586828701611100565b92505060406112c686828701611100565b9150509250925092565b600080604083850312156112e357600080fd5b60006112f18582860161113f565b925050602083013567ffffffffffffffff81111561130e57600080fd5b61131a85828601611115565b9150509250929050565b600061133083836114a1565b60208301905092915050565b600061134782611669565b611351818561168c565b935061135c83611644565b8060005b8381101561138d5781516113748882611324565b975061137f8361167f565b925050600181019050611360565b5085935050505092915050565b6113a381611743565b82525050565b600081546113b68161179b565b6113c0818661169d565b945060018216600081146113db57600181146113ec5761141f565b60ff1983168652818601935061141f565b6113f585611654565b60005b83811015611417578154818901526001820191506020810190506113f8565b838801955050505b50505092915050565b600061143382611674565b61143d81856116a8565b935061144d818560208601611768565b611456816118a3565b840191505092915050565b600061146e6012836116a8565b91507f496e76616c6964207265717565737420494400000000000000000000000000006000830152602082019050919050565b6114aa8161174f565b82525050565b6114b98161174f565b82525050565b60006114cb82846113a9565b915081905092915050565b600060208201905081810360008301526114f0818461133c565b905092915050565b6000602082019050818103600083015261151181611461565b9050919050565b600060208201905061152d60008301846114b0565b92915050565b600061012082019050611549600083018c6114b0565b818103602083015261155b818b611428565b9050818103604083015261156f818a611428565b905081810360608301526115838189611428565b905081810360808301526115978188611428565b905081810360a08301526115ab8187611428565b90506115ba60c083018661139a565b6115c760e083018561139a565b6115d561010083018461139a565b9a9950505050505050505050565b6000604051905081810181811067ffffffffffffffff8211171561160a57611609611874565b5b8060405250919050565b600067ffffffffffffffff82111561162f5761162e611874565b5b601f19601f8301169050602081019050919050565b6000819050602082019050919050565b60008190508160005260206000209050919050565b600081519050919050565b600081519050919050565b6000602082019050919050565b600082825260208201905092915050565b600081905092915050565b600082825260208201905092915050565b60006116c48261174f565b91506116cf8361174f565b9250827fffffffffffffffffffffffffffffffffffffffffffffffffffffffffffffffff0382111561170457611703611816565b5b828201905092915050565b600061171a8261174f565b91506117258361174f565b92508282101561173857611737611816565b5b828203905092915050565b60008115159050919050565b6000819050919050565b82818337600083830152505050565b60005b8381101561178657808201518184015260208101905061176b565b83811115611795576000848401525b50505050565b600060028204905060018216806117b357607f821691505b602082108114156117c7576117c6611845565b5b50919050565b60006117d88261174f565b91507fffffffffffffffffffffffffffffffffffffffffffffffffffffffffffffffff82141561180b5761180a611816565b5b600182019050919050565b7f4e487b7100000000000000000000000000000000000000000000000000000000600052601160045260246000fd5b7f4e487b7100000000000000000000000000000000000000000000000000000000600052602260045260246000fd5b7f4e487b7100000000000000000000000000000000000000000000000000000000600052604160045260246000fd5b6000601f19601f8301169050919050565b6118bd81611743565b81146118c857600080fd5b50565b6118d48161174f565b81146118df57600080fd5b5056fea26469706673582212202684615f4fbdd80c5e190f3938faebd97e889d77a143602ae01e16287f80054464736f6c63430008000033",
  "immutableReferences": {},
  "source": "// SPDX-License-Identifier: MIT\npragma solidity ^0.8.0;\n\ncontract VerifierSSI {\n    uint256 public reqCount = 0;\n    Request[] public requests;\n\n    struct Request {\n        uint256 id;\n        string user_did;\n        string V_publicKey;\n        string comp_and_doc;\n        string encAddress;\n        string request_at;\n        bool removed;\n        bool review;\n        bool status;\n    }\n\n    function makeRequest(\n        string memory user_did,\n        string memory V_publicKey,\n        string memory comp_and_doc,\n        string memory request_at\n    ) public {\n        reqCount++;\n        requests.push(Request(reqCount, user_did, V_publicKey, comp_and_doc, \"\", request_at, false, false, false));\n    }\n\n    function acceptedByUser(uint256 id, string memory encAddress) public {\n        require(id > 0 && id <= reqCount, \"Invalid request ID\");\n        Request storage req = requests[id - 1];\n        req.encAddress = encAddress;\n        req.status = true;\n    }\n\n    function showRequest(string memory user_did) public view returns (uint256[] memory) {\n        uint256[] memory indices = new uint256[](reqCount);\n        uint256 counter = 0;\n        for (uint256 i = 0; i < reqCount; i++) {\n            if (keccak256(bytes(requests[i].user_did)) == keccak256(bytes(user_did))) {\n                indices[counter++] = i + 1;\n            }\n        }\n        uint256[] memory result = new uint256[](counter);\n        for (uint256 i = 0; i < counter; i++) {\n            result[i] = indices[i];\n        }\n        return result;\n    }\n\n    function showAllRequest() public view returns (uint256) {\n        return reqCount;\n    }\n\n    function getIndividualRequest(uint256 id) public view returns (uint256, string memory, string memory, string memory, string memory, string memory, bool, bool, bool) {\n        require(id > 0 && id <= reqCount, \"Invalid request ID\");\n        Request memory req = requests[id - 1];\n        return (req.id, req.user_did, req.V_publicKey, req.comp_and_doc, req.encAddress, req.request_at, req.removed, req.review, req.status);\n    }\n\n    function verifyDocument(uint256 id, bool review, bool status) public {\n        require(id > 0 && id <= reqCount, \"Invalid request ID\");\n        Request storage req = requests[id - 1];\n        req.review = review;\n        req.status = status;\n    }\n\n    function removeRequest(uint256 id) public {\n        require(id > 0 && id <= reqCount, \"Invalid request ID\");\n        Request storage req = requests[id - 1];\n        req.removed = true;\n    }\n}",
  "sourcePath": "/Users/ayushadhikari/ssi1/contracts/VerifierSSI.sol",
  "compiler": {
    "name": "solc",
    "version": "0.8.0+commit.c7dfd78e.Emscripten.clang"
  },
  "schemaVersion": "3.4.16",
  "updatedAt": "2024-03-01T07:42:45.997Z",
  "networkType": "ethereum",
  "devdoc": {
    "kind": "dev",
    "methods": {},
    "version": 1
  },
  "userdoc": {
    "kind": "user",
    "methods": {},
    "version": 1
  }
}